:1000000012C02CC02BC02AC029C028C027C026C0BF
:1000100025C024C023C022C021C020C01FC01EC0D4
:100020001DC01CC01BC011241FBECFE5D4E0DEBF25
:10003000CDBF10E0A0E6B0E0E4ECF3E002C0059034
:100040000D92A036B107D9F710E0A0E6B0E001C0EC
:100050001D92A036B107E1F73DD1B2C1D1CF8FB724
:10006000F894899AE9ECF3E03197F1F700C00000C9
:100070008998FDEAFA95F1F7000090B38FBFE7E4A5
:10008000F3E03197F1F700C0000081E091FD80E0DE
:1000900008959FB7F894899A25E02A95F1F7000012
:1000A000811189988DEA8A95F1F7000089989FBFA0
:1000B0000895EF92FF920F931F93CF93DF9300E089
:1000C00010E0EE24FF24E394C82FD0E0C701002EF7
:1000D00002C0880F991F0A94E2F79C012C233D234C
:1000E0008217930719F481E0D4DF02C080E0D1DFEA
:1000F0000F5F1F4F0830110549F7DF91CF911F9116
:100100000F91FF90EF9008959FB7F894899A25E09A
:100110002A95F1F70000899882E28A95F1F700C0EC
:1001200080B328E72A95F1F79FBF90E08270907026
:100130009595879508951F93CF93DF93C0E0D0E006
:1001400010E0E2DF90E00C2E02C0880F991F0A94A5
:10015000E2F7182B2196C830D10599F7812FDF914E
:10016000CF911F910895CF937ADF8130E1F48CEC29
:10017000A0DF84E49EDF8FE79FE4A2E181509040FE
:10018000A040E1F700C000006ADF8CEC92DF8EEB4C
:1001900090DFD1DFC82FCFDF382F20E08C2F90E009
:1001A000822B932B02C080E090E0CF91089592952E
:1001B00082958F7089279F7089270895939A95E873
:1001C0009A95F1F7000092B39F7092BB92B382951B
:1001D000807F892B82BB939885E88A95F1F7000090
:1001E0000895CF93C82F662311F4929801C0929A74
:1001F0008C2F82958F70E2DF8C2FE0DFCF910895F6
:1002000061E0EFDF08956295660F660F607C860FF0
:10021000806860E0E6DF08958FE295E70197F1F7E7
:1002200000C0000083E0CADF8FE39FE10197F1F790
:1002300000C0000083E0C2DF87EC90E00197F1F797
:1002400000C0000083E0BADF8FEC97E00197F1F780
:1002500000C0000082E0B2DF8FEC97E00197F1F779
:1002600000C0000088E260E0BCDF8FEC97E00197FF
:10027000F1F700C000008CE060E0B3DF8FEC97E0A6
:100280000197F1F700C0000086E060E0AADF8FEC84
:1002900097E00197F1F700C00000089581E060E069
:1002A000A0DF87EB9BE00197F1F700C00000089505
:1002B000CF93DF93EC018881882329F02196A0DF7A
:1002C00089918823E1F7DF91CF91089512BA8FEFDA
:1002D00081BB0895FBDF32D09FDFE0DF0AE010E052
:1002E00080E060ED3ED08FEF91EEA4E08150904031
:1002F000A040E1F700C0000024D081ED2BD080E0C9
:1003000060E070E080DF2FDF52DFC82FD0E084E7AD
:1003100077DF80E275DF8DE373DF80E271DFCE018E
:10032000B8013AD0C82F862F805D6ADF8C2F805DA0
:1003300067DF8AE265DF83E463DFD2CF80E280B9E2
:10034000089584EA86BF06B607FEFDCF089584E9C6
:1003500086BF089583B984E886BF06B607FEFDCF41
:100360000895CF93DF93C82FD62FEBDF8D2FF2DFC9
:100370008C2FF0DFECDFDF91CF91089584EC86BF06
:1003800006B607FEFDCF83B1089584E886BF06B6A2
:1003900007FEFDCF83B10895AA1BBB1B51E107C027
:1003A000AA1FBB1FA617B70710F0A61BB70B881F05
:1003B000991F5A95A9F780959095BC01CD01089594
:0403C000F894FFCFDF
:00000001FF
